:100000000C9472000C9493000C9493000C94930045
:100010000C9493000C942C0F0C94010F0C949300EF
:100020000C9493000C9493000C9493000C94930004
:100030000C9493000C9493000C9493000C949300F4
:100040000C9493000C9493000C9493000C949300E4
:100050000C9493000C9493000C9493000C949300D4
:100060000C9493000C94F80A0C9493000C94930055
:100070000C9493000C9493000C9493000C949300B4
:100080000C9493000C9493000C9493000C949300A4
:100090000C9493000C9493000C9493000C94930094
:1000A0000C9493000C9493000C9493000C94930084
:1000B0000C9493000C9493000C9493000C94930074
:1000C0000C9493000C9493000C9493000C94930064
:1000D0000C9493000C9493000C9493000C94930054
:1000E0000C94930011241FBECFEFD1E2DEBFCDBF31
:1000F00000E00CBF13E0A0E0B2E0E6ECF3E700E0C4
:100100000BBF02C007900D92AC33B107D9F713E0D3
:10011000ACE3B3E001C01D92A33AB107E1F70E943E
:1001200078250C94E1390C9400000F931F93DF9312
:10013000CF93CDB7DEB7C057D0400FB6F894DEBF2F
:100140000FBECDBFFE01E359FF4F80E090E0A0E875
:10015000BFE380839183A283B3838E0107591F4F2E
:10016000FE01E359FF4F608171818281938126E610
:1001700036E646E655E40E949E34DC01CB01F801E8
:1001800080839183A283B383FE01E759FF4F60818F
:1001900071818281938120E030E040E85FE30E943A
:1001A000A436882344F4FE01E959FF4F81E090E032
:1001B0009183808364C0FE01E759FF4F60817181A4
:1001C0008281938120E03FEF4FE757E40E9444365D
:1001D00018160CF043C0FE01E359FF4F6081718196
:1001E0008281938120E030E040E251E40E949E341D
:1001F000DC01CB018E0109591F4FBC01CD010E94CA
:10020000C832DC01CB01F801918380831FC0FE015D
:10021000EB59FF4F80E791E091838083FE01EB591A
:10022000FF4F808191810197F1F7FE01EB59FF4F5C
:1002300091838083DE01A959BF4FFE01E959FF4F29
:1002400080819181019711969C938E93FE01E959CB
:10025000FF4F808191810097D1F627C08E01095907
:100260001F4FFE01E759FF4F6081718182819381A9
:100270000E94C832DC01CB01F80191838083DE014A
:10028000AD59BF4FFE01E959FF4F808191818D9398
:100290009C93FE01ED59FF4F808191810197F1F709
:1002A000FE01ED59FF4F91838083A8E2B0E0E8E2C0
:1002B000F0E080818E7F8C93A8E2B0E0E8E2F0E08D
:1002C00080818D7F8C93E8E2F0E080E38083A8E278
:1002D000B0E0E8E2F0E0808184608C93FE01E15AB6
:1002E000FF4F80E090E0A0EAB0E480839183A28396
:1002F000B3838E01055A1F4FFE01E15AFF4F608103
:1003000071818281938126E636E646E655E40E94B5
:100310009E34DC01CB01F80180839183A283B383F7
:10032000FE01E55AFF4F608171818281938120E057
:1003300030E040E85FE30E94A436882344F4FE01E5
:10034000E75AFF4F81E090E09183808364C0FE0113
:10035000E55AFF4F608171818281938120E03FEFF8
:100360004FE757E40E94443618160CF043C0FE01D4
:10037000E15AFF4F608171818281938120E030E0FA
:1003800040E251E40E949E34DC01CB018E01075A09
:100390001F4FBC01CD010E94C832DC01CB01F80126
:1003A000918380831FC0FE01E95AFF4F80E791E0EF
:1003B00091838083FE01E95AFF4F808191810197EB
:1003C000F1F7FE01E95AFF4F91838083DE01A75ABE
:1003D000BF4FFE01E75AFF4F80819181019711962F
:1003E0009C938E93FE01E75AFF4F80819181009785
:1003F000D1F627C08E01075A1F4FFE01E55AFF4F65
:1004000060817181828193810E94C832DC01CB01BD
:10041000F80191838083DE01AB5ABF4FFE01E75A9A
:10042000FF4F808191818D939C93FE01EB5AFF4F8A
:10043000808191810197F1F7FE01EB5AFF4F918383
:100440008083A8E2B0E0E8E2F0E080818B7F8C93CB
:10045000FE01EF5AFF4F80E090E0A0E8BFE3808309
:100460009183A283B3838E01035B1F4FFE01EF5A7A
:10047000FF4F608171818281938126E636E646E6F0
:1004800055E40E949E34DC01CB01F8018083918306
:10049000A283B383FE01E35BFF4F608171818281A0
:1004A000938120E030E040E85FE30E94A436882397
:1004B00044F4FE01E55BFF4F81E090E0918380838F
:1004C00064C0FE01E35BFF4F608171818281938193
:1004D00020E03FEF4FE757E40E94443618160CF037
:1004E00043C0FE01EF5AFF4F608171818281938189
:1004F00020E030E040E251E40E949E34DC01CB0178
:100500008E01055B1F4FBC01CD010E94C832DC018A
:10051000CB01F801918380831FC0FE01E75BFF4F91
:1005200080E791E091838083FE01E75BFF4F80814C
:1005300091810197F1F7FE01E75BFF4F9183808383
:10054000DE01A55BBF4FFE01E55BFF4F808191811E
:10055000019711969C938E93FE01E55BFF4F80817E
:1005600091810097D1F627C08E01055B1F4FFE01D8
:10057000E35BFF4F60817181828193810E94C83269
:10058000DC01CB01F80191838083DE01A95BBF4FC1
:10059000FE01E55BFF4F808191818D939C93FE016D
:1005A000E95BFF4F808191810197F1F7FE01E95BE3
:1005B000FF4F91838083A8E2B0E0E8E2F0E0808121
:1005C0008E7F8C93A8E2B0E0E8E2F0E080818D7F3E
:1005D0008C93E8E2F0E080E38083A8E2B0E0E8E218
:1005E000F0E0808184608C93FE01ED5BFF4F80E042
:1005F00090E0A0EAB0E480839183A283B3838E016C
:10060000015C1F4FFE01ED5BFF4F608171818281B4
:10061000938126E636E646E655E40E949E34DC01E8
:10062000CB01F80180839183A283B383FE01FF96FF
:10063000608171818281938120E030E040E85FE356
:100640000E94A43688232CF481E090E09EAF8DAF09
:1006500046C0FE01FF96608171818281938120E016
:100660003FEF4FE757E40E944436181664F5FE0149
:10067000ED5BFF4F608171818281938120E030E0EA
:1006800040E251E40E949E34DC01CB01BC01CD016B
:100690000E94C832DC01CB019EAF8DAF0FC080E756
:1006A00091E09CAF8BAF8BAD9CAD0197F1F79CAF08
:1006B0008BAF8DAD9EAD01979EAF8DAF8DAD9EADD5
:1006C000009769F716C0FE01FF96608171818281F3
:1006D00093810E94C832DC01CB019EAF8DAF8DADFE
:1006E0009EAD9AAF89AF89AD9AAD0197F1F79AAFF8
:1006F00089AFA8E2B0E0E8E2F0E080818B7F8C93E4
:1007000080E090E0A0E8BFE38DAB9EABAFABB8AFAD
:100710006DA97EA98FA998AD26E636E646E655E492
:100720000E949E34DC01CB0189AB9AABABABBCAB76
:1007300069A97AA98BA99CA920E030E040E85FE391
:100740000E94A43688232CF481E090E098AB8FA718
:100750003FC069A97AA98BA99CA920E03FEF4FE788
:1007600057E40E94443618164CF56DA97EA98FA94E
:1007700098AD20E030E040E251E40E949E34DC017C
:10078000CB01BC01CD010E94C832DC01CB0198AB8A
:100790008FA70FC080E791E09EA78DA78DA59EA58E
:1007A0000197F1F79EA78DA78FA598A9019798AB00
:1007B0008FA78FA598A9009769F714C069A97AA98E
:1007C0008BA99CA90E94C832DC01CB0198AB8FA7F2
:1007D0008FA598A99CA78BA78BA59CA50197F1F73E
:1007E0009CA78BA7A8E2B0E0E8E2F0E080818E7FD2
:1007F0008C93A8E2B0E0E8E2F0E080818D7F8C93FA
:10080000E8E2F0E080E38083A8E2B0E0E8E2F0E034
:10081000808184608C9380E090E0A0EAB0E48FA3B4
:1008200098A7A9A7BAA76FA178A589A59AA526E632
:1008300036E646E655E40E949E34DC01CB018BA3EC
:100840009CA3ADA3BEA36BA17CA18DA19EA120E022
:1008500030E040E85FE30E94A43688232CF481E076
:1008600090E09AA389A33FC06BA17CA18DA19EA11A
:1008700020E03FEF4FE757E40E94443618164CF54E
:100880006FA178A589A59AA520E030E040E251E467
:100890000E949E34DC01CB01BC01CD010E94C83214
:1008A000DC01CB019AA389A30FC080E791E098A354
:1008B0008F8F8F8D98A10197F1F798A38F8F89A1C2
:1008C0009AA101979AA389A389A19AA1009769F790
:1008D00014C06BA17CA18DA19EA10E94C832DC0135
:1008E000CB019AA389A389A19AA19E8F8D8F8D8D0B
:1008F0009E8D0197F1F79E8F8D8FA8E2B0E0E8E220
:10090000F0E080818B7F8C9380E090E0A0E8BFE3F3
:10091000898F9A8FAB8FBC8F698D7A8D8B8D9C8DD3
:1009200026E636E646E655E40E949E34DC01CB011D
:100930008D8B9E8BAF8BB88F6D897E898F89988DBB
:1009400020E030E040E85FE30E94A43688232CF4E6
:1009500081E090E09C8B8B8B3FC06D897E898F8975
:10096000988D20E03FEF4FE757E40E944436181679
:100970004CF5698D7A8D8B8D9C8D20E030E040E2C6
:1009800051E40E949E34DC01CB01BC01CD010E94E8
:10099000C832DC01CB019C8B8B8B0FC080E791E0D0
:1009A0009A8B898B89899A890197F1F79A8B898B20
:1009B0008B899C8901979C8B8B8B8B899C89009759
:1009C00069F714C06D897E898F89988D0E94C8321D
:1009D000DC01CB019C8B8B8B8B899C89988B8F87BF
:1009E0008F8598890197F1F7988B8F87A8E2B0E0FF
:1009F000E8E2F0E080818E7F8C93A8E2B0E0E8E24C
:100A0000F0E080818D7F8C93E8E2F0E080E28083EB
:100A1000A8E2B0E0E8E2F0E0808184608C9380E0BE
:100A200090E0A0EAB0E48B879C87AD87BE876B859A
:100A30007C858D859E8526E636E646E655E40E9451
:100A40009E34DC01CB018F839887A987BA876F8199
:100A5000788589859A8520E030E040E85FE30E9450
:100A6000A43688232CF481E090E09E838D833FC0E0
:100A70006F81788589859A8520E03FEF4FE757E4BD
:100A80000E94443618164CF56B857C858D859E85B5
:100A900020E030E040E251E40E949E34DC01CB01D2
:100AA000BC01CD010E94C832DC01CB019E838D8345
:100AB0000FC080E791E09C838B838B819C810197A1
:100AC000F1F79C838B838D819E8101979E838D831B
:100AD0008D819E81009769F714C06F817885898523
:100AE0009A850E94C832DC01CB019E838D838D8163
:100AF0009E819A83898389819A810197F1F79A83EC
:100B00008983A8E2B0E0E8E2F0E080818B7F8C93FB
:100B1000C059DF4F0FB6F894DEBF0FBECDBFCF91E7
:100B2000DF911F910F910895DF93CF93CDB7DEB77B
:100B30002E970FB6F894DEBF0FBECDBF80E090E0D9
:100B4000A0E8BFE38B879C87AD87BE876B857C85DC
:100B50008D859E8526E636E646E655E40E949E345F
:100B6000DC01CB018F839887A987BA876F8178854D
:100B700089859A8520E030E040E85FE30E94A43652
:100B800088232CF481E090E09E838D833FC06F81A9
:100B9000788589859A8520E03FEF4FE757E40E94EA
:100BA000443618164CF56B857C858D859E8520E036
:100BB00030E040E251E40E949E34DC01CB01BC01F4
:100BC000CD010E94C832DC01CB019E838D830FC012
:100BD00080E791E09C838B838B819C810197F1F767
:100BE0009C838B838D819E8101979E838D838D81D4
:100BF0009E81009769F714C06F81788589859A85F1
:100C00000E94C832DC01CB019E838D838D819E8141
:100C10009A83898389819A810197F1F79A838983DD
:100C200088E20E94280681E00E94280686E00E9451
:100C300028068EE00E94280680E80E9428062E964C
:100C40000FB6F894DEBF0FBECDBFCF91DF910895F0
:100C5000DF93CF93CDB7DEB76E970FB6F894DEBFB4
:100C60000FBECDBF8E8F8E8D8D8F8D8D807F8D8FA2
:100C7000A8E2B0E0E8E2F0E080818F708C93A8E217
:100C8000B0E0E8E2F0E090818D8D892B8C93A8E2B2
:100C9000B0E0E8E2F0E080818E7F8C93A8E2B0E0E3
:100CA000E8E2F0E080818D7F8C93A8E2B0E0E8E29A
:100CB000F0E0808184608C9380E090E0A0EAB0E472
:100CC000898F9A8FAB8FBC8F698D7A8D8B8D9C8D20
:100CD00026E636E646E655E40E949E34DC01CB016A
:100CE0008D8B9E8BAF8BB88F6D897E898F89988D08
:100CF00020E030E040E85FE30E94A43688232CF433
:100D000081E090E09C8B8B8B3FC06D897E898F89C1
:100D1000988D20E03FEF4FE757E40E9444361816C5
:100D20004CF5698D7A8D8B8D9C8D20E030E040E212
:100D300051E40E949E34DC01CB01BC01CD010E9434
:100D4000C832DC01CB019C8B8B8B0FC080E791E01C
:100D50009A8B898B89899A890197F1F79A8B898B6C
:100D60008B899C8901979C8B8B8B8B899C890097A5
:100D700069F714C06D897E898F89988D0E94C83269
:100D8000DC01CB019C8B8B8B8B899C89988B8F870B
:100D90008F8598890197F1F7988B8F87A8E2B0E04B
:100DA000E8E2F0E080818B7F8C938E8D8F708E8F48
:100DB0008E8D8295807F8E8FA8E2B0E0E8E2F0E031
:100DC00080818F708C93A8E2B0E0E8E2F0E090813F
:100DD0008E8D892B8C93A8E2B0E0E8E2F0E0808170
:100DE0008E7F8C93A8E2B0E0E8E2F0E080818D7F16
:100DF0008C93A8E2B0E0E8E2F0E0808184608C931C
:100E000080E090E0A0EAB0E48B879C87AD87BE8746
:100E10006B857C858D859E8526E636E646E655E41F
:100E20000E949E34DC01CB018F839887A987BA8703
:100E30006F81788589859A8520E030E040E85FE31E
:100E40000E94A43688232CF481E090E09E838D8359
:100E50003FC06F81788589859A8520E03FEF4FE715
:100E600057E40E94443618164CF56B857C858D85B9
:100E70009E8520E030E040E251E40E949E34DC0197
:100E8000CB01BC01CD010E94C832DC01CB019E83A5
:100E90008D830FC080E791E09C838B838B819C8145
:100EA0000197F1F79C838B838D819E8101979E83AF
:100EB0008D838D819E81009769F714C06F8178853D
:100EC00089859A850E94C832DC01CB019E838D837F
:100ED0008D819E819A83898389819A810197F1F717
:100EE0009A838983A8E2B0E0E8E2F0E080818B7F1A
:100EF0008C936E960FB6F894DEBF0FBECDBFCF9128
:100F0000DF910895DF93CF93CDB7DEB76E970FB61D
:100F1000F894DEBF0FBECDBF8E8F8E8D8D8F8D8DE1
:100F2000807F8D8FA8E2B0E0E8E2F0E080818F70F2
:100F30008C93A8E2B0E0E8E2F0E090818D8D892BFF
:100F40008C93A8E2B0E0E8E2F0E0808181608C93CD
:100F5000A8E2B0E0E8E2F0E080818D7F8C93A8E227
:100F6000B0E0E8E2F0E0808184608C9380E090E083
:100F7000A0EAB0E4898F9A8FAB8FBC8F698D7A8D90
:100F80008B8D9C8D26E636E646E655E40E949E341F
:100F9000DC01CB018D8B9E8BAF8BB88F6D897E89E9
:100FA0008F89988D20E030E040E85FE30E94A4360E
:100FB00088232CF481E090E09C8B8B8B3FC06D8963
:100FC0007E898F89988D20E03FEF4FE757E40E949C
:100FD000443618164CF5698D7A8D8B8D9C8D20E0EA
:100FE00030E040E251E40E949E34DC01CB01BC01C0
:100FF000CD010E94C832DC01CB019C8B8B8B0FC0D2
:1010000080E791E09A8B898B89899A890197F1F71A
:101010009A8B898B8B899C8901979C8B8B8B8B8975
:101020009C89009769F714C06D897E898F89988D96
:101030000E94C832DC01CB019C8B8B8B8B899C89F5
:10104000988B8F878F8598890197F1F7988B8F8779
:10105000A8E2B0E0E8E2F0E080818B7F8C938E8D97
:101060008F708E8F8E8D8295807F8E8FA8E2B0E0FC
:10107000E8E2F0E080818F708C93A8E2B0E0E8E2D3
:10108000F0E090818E8D892B8C93A8E2B0E0E8E2AD
:10109000F0E0808181608C93A8E2B0E0E8E2F0E0CB
:1010A00080818D7F8C93A8E2B0E0E8E2F0E080815F
:1010B00084608C9380E090E0A0EAB0E48B879C870A
:1010C000AD87BE876B857C858D859E8526E636E659
:1010D00046E655E40E949E34DC01CB018F8398875D
:1010E000A987BA876F81788589859A8520E030E065
:1010F00040E85FE30E94A43688232CF481E090E06E
:101100009E838D833FC06F81788589859A8520E095
:101110003FEF4FE757E40E94443618164CF56B85B5
:101120007C858D859E8520E030E040E251E40E9480
:101130009E34DC01CB01BC01CD010E94C832DC0130
:10114000CB019E838D830FC080E791E09C838B83CE
:101150008B819C810197F1F79C838B838D819E818C
:1011600001979E838D838D819E81009769F714C0BE
:101170006F81788589859A850E94C832DC01CB0110
:101180009E838D838D819E819A83898389819A81B3
:101190000197F1F79A838983A8E2B0E0E8E2F0E0F2
:1011A00080818B7F8C936E960FB6F894DEBF0FBE56
:1011B000CDBFCF91DF910895DF93CF93CDB7DEB749
:1011C00080E80E942806CF91DF910895DF93CF93A6
:1011D0000F920F92CDB7DEB79A8389830AC0E98157
:1011E000FA8180810E94820789819A8101969A837F
:1011F0008983E981FA818081882389F70F900F9094
:10120000CF91DF910895DF93CF9300D00F92CDB7A8
:10121000DEB789836A838981282F30E03C832B8362
:101220008B819C8182309105D9F02B813C812330C8
:10123000310534F48B819C818130910561F01EC0B1
:101240002B813C812330310581F08B819C8184305E
:10125000910581F013C08A8181580E9428060EC032
:101260008A8181540E94280609C08A818D560E9475
:10127000280604C08A818D520E9428060F900F9084
:101280000F900F90CF91DF910895DF93CF93CDB75B
:10129000DEB727970FB6F894DEBF0FBECDBF8A83A7
:1012A0006B835D834C833F832E8319828A818823DD
:1012B00019F08B81882319F40E94DC0804C08A810C
:1012C0006B810E9403098E819F818530910519F001
:1012D00089818130A9F48C819D8120E137E2B901B7
:1012E0000E949639CB01C09690938D0380938C0316
:1012F00080918C0390918D030E94820781E0898305
:101300008E819F818430910519F08981813011F59A
:101310008C819D8128EE33E0B9010E949639CB0182
:1013200090938F0380938E0380918E0390918F030F
:101330002AE030E0B9010E949639C0969093A0034C
:1013400080939F0380919F039091A0030E94820746
:1013500081E089838E819F818330910519F0898195
:10136000813011F58C819D8124E630E0B9010E9425
:101370009639CB0190938F0380938E0380918E03D7
:1013800090918F032AE030E0B9010E949639C0960F
:1013900090939A03809399038091990390919A0373
:1013A0000E94820781E089838E819F81823091052E
:1013B00019F08981813011F58C819D812AE030E01E
:1013C000B9010E949639CB0190938F0380938E03CD
:1013D00080918E0390918F032AE030E0B9010E9442
:1013E0009639C096909396038093950380919503C8
:1013F000909196030E94820781E089838E819F816C
:101400008130910519F08981813091F48C819D8121
:101410002AE030E0B9010E949639C09690939E036D
:1014200080939D0380919D0390919E030E9482076B
:101430008E819F81863091051CF085E40E94820791
:1014400027960FB6F894DEBF0FBECDBFCF91DF91C8
:101450000895DF93CF93CDB7DEB7A1ECB0E0E1EC18
:10146000F0E0808188618C93A2ECB0E0E2ECF0E0E7
:10147000808186608C93E4ECF0E08FE58083E5EC7E
:10148000F0E01082A1ECB0E0E1ECF0E08081806857
:101490008C93CF91DF910895DF93CF930F92CDB7C7
:1014A000DEB78983E0ECF0E08081882F90E08072E5
:1014B00090700097B9F3E6ECF0E0898180830F909B
:1014C000CF91DF910895DF93CF930F920F92CDB715
:1014D000DEB79A838983E0ECF0E08081882F90E08A
:1014E000807290700097B9F3E6ECF0E08981808318
:1014F000E0ECF0E08081882F90E08072907000979F
:10150000B9F3E6ECF0E089819A81892F99278083ED
:10151000E0ECF0E08081882F90E08072907000977E
:10152000B9F3E6ECF0E08AE080830F900F90CF9162
:10153000DF910895DF93CF930F920F92CDB7DEB76F
:101540009A83898314C0E0ECF0E08081882F90E0DA
:10155000807290700097B9F3A6ECB0E0E981FA814F
:1015600080818C9389819A8101969A838983E9810C
:10157000FA818081882339F7E0ECF0E08081882FC0
:1015800090E0807290700097B9F3E6ECF0E08AE0AA
:1015900080830F900F90CF91DF910895DF93CF93C9
:1015A0000F92CDB7DEB71982E6E2F0E08081898341
:1015B000898188608983E8E2F0E0898180830F90E7
:1015C000CF91DF910895DF93CF930F92CDB7DEB720
:1015D0001982E6E2F0E0808189838981877F8983AF
:1015E000E8E2F0E0898180830F90CF91DF91089548
:1015F0001F920F920FB60F9200905B000F92112472
:101600002F933F934F935F936F937F938F939F930A
:10161000AF93BF93EF93FF93DF93CF93CDB7DEB735
:10162000E6ECF0E080818093970381E090E0909376
:101630004903809348038091970380939803809196
:101640009703863421F080919703863631F481E048
:1016500090E090936D0380936C0390919703809139
:101660000C02981731F09091970380910D02981712
:10167000D9F480916C0390916D0381309105A1F4B0
:1016800080914A0390914B03009771F480917E03FF
:1016900090917F03009721F48EE092E00E949A0AD5
:1016A00010926D0310926C0380919703833521F0A3
:1016B00080919703833731F481E090E090934B035E
:1016C00080934A0380914A0390914B03009709F459
:1016D0000BC29091970380910D02981731F0909171
:1016E000970380910C029817D9F480910002909191
:1016F000010281309105A1F480917E0390917F03D6
:10170000009771F4109201021092000281E090E0C3
:1017100090934D0380934C0386E192E00E949A0AD5
:10172000809197038A3721F0809197038A35B1F42D
:101730008091000290910102009781F481E090E095
:10174000909301028093000210924D0310924C037B
:1017500081E090E0909355038093540380910002C0
:1017600090910102009709F0BFC180914C039091C4
:101770004D038130910509F0B7C180914E039091DE
:101780004F038230910509F0BEC0809152039091C1
:1017900053038230910509F050C080919703803344
:1017A00029F4109291031092900341C08091970305
:1017B000813339F481E090E090939103809390031A
:1017C00036C080919703823339F482E090E09093A1
:1017D0009103809390032BC080919703833339F456
:1017E00083E090E0909391038093900320C08091D8
:1017F0009703843339F484E090E0909391038093CD
:10180000900315C080919703853339F485E090E00B
:1018100090939103809390030AC08091970386333D
:1018200031F486E090E0909391038093900383E0FD
:1018300090E09093530380935203809152039091D0
:1018400053038130910509F050C080919703803394
:1018500029F41092A2031092A10341C08091970332
:10186000813339F481E090E09093A2038093A10347
:1018700036C080919703823339F482E090E09093F0
:10188000A2038093A1032BC080919703833339F483
:1018900083E090E09093A2038093A10320C0809105
:1018A0009703843339F484E090E09093A20380930B
:1018B000A10315C080919703853339F485E090E04A
:1018C0009093A2038093A1030AC08091970386336B
:1018D00031F486E090E09093A2038093A10382E02C
:1018E00090E0909353038093520380919703843642
:1018F00021F080919703843431F481E090E090935B
:10190000530380935203809150039091510381308F
:10191000910509F05CC080914E0390914F03813096
:10192000910509F054C080919703803329F41092F7
:101930008B0310928A0341C080919703813339F45D
:1019400081E090E090938B0380938A0336C080916E
:101950009703823339F482E090E090938B03809375
:101960008A032BC080919703833339F483E090E09E
:1019700090938B0380938A0320C0809197038433D4
:1019800039F484E090E090938B0380938A0315C030
:1019900080919703853339F485E090E090938B0331
:1019A00080938A030AC080919703863331F486E0DE
:1019B00090E090938B0380938A03109251031092CE
:1019C000500382E090E090934F0380934E03809108
:1019D0004E0390914F038130910509F057C08091DB
:1019E000500390915103009709F050C080919703E4
:1019F000803329F410929C0310929B0341C0809184
:101A00009703813339F481E090E090939C038093B5
:101A10009B0336C080919703823339F482E090E0D3
:101A200090939C0380939B032BC0809197038333F7
:101A300039F483E090E090939C0380939B0320C053
:101A400080919703843339F484E090E090939C0371
:101A500080939B0315C080919703853339F485E00B
:101A600090E090939C0380939B030AC0809197031E
:101A7000863331F486E090E090939C0380939B033F
:101A800081E090E0909351038093500380919703FD
:101A9000893621F080919703893431F481E090E018
:101AA00090934F0380934E0380919703833621F0E8
:101AB000809197038334C1F480919B0390919C03A0
:101AC0000E944C0A80918A0390918B030E944C0AD9
:101AD0008091A1039091A2030E944C0A8091A103DE
:101AE0009091A2030E944C0ACF91DF91FF91EF9158
:101AF000BF91AF919F918F917F916F915F914F9126
:101B00003F912F910F9000925B000F900FBE0F90AE
:101B10001F901895DF93CF93CDB7DEB7A7E2B0E063
:101B2000E7E2F0E08081876F8C93A8E2B0E0E8E222
:101B3000F0E0808180788C93CF91DF910895DF93DE
:101B4000CF93CDB7DEB7E0E3F0E01082E1E3F0E061
:101B50001082E7E0F1E01082E8E0F1E01082CF913E
:101B6000DF910895DF93CF93CDB7DEB7A1E2B0E068
:101B7000E1E2F0E080818F608C93A2E2B0E0E2E2EB
:101B8000F0E08081807F8C93AAE0B1E0EAE0F1E0B0
:101B9000808188618C93ABE0B1E0EBE0F1E0808183
:101BA00088618C93CF91DF910895DF93CF93CDB768
:101BB000DEB7E1E2F1E01082E5E2F1E08FEF808351
:101BC000E4E2F1E081E08083E9E2F1E01082E8E222
:101BD000F1E08FEF8083EBE2F1E01082EAE2F1E0E6
:101BE0008FEF8083EDE2F1E01082ECE2F1E08FEF25
:101BF0008083E0E2F1E089EA8083E1E2F1E08BE0DA
:101C00008083CF91DF910895DF93CF93CDB7DEB777
:101C1000EAE7F0E01082EBE7F0E01082ECE7F0E0BA
:101C200080E28083E0E5F0E080E88083EAE7F0E0AE
:101C300086E88083CF91DF910895DF93CF930F9251
:101C40000F92CDB7DEB78A838A81883020F0EBE728
:101C5000F0E088E080838A8187708A83ECE7F0E097
:101C60008A8180628083AAE7B0E0EAE7F0E08081C1
:101C700080648C93EAE7F0E08081882F90E08071A7
:101C800090700097B9F3E9E7F0E080818983AAE7D3
:101C9000B0E0EAE7F0E0808180618C93EBE7F0E070
:101CA000108289810F900F90CF91DF910895DF937B
:101CB000CF9300D0CDB7DEB789836A834B838B8106
:101CC0000E941D0E8093920380919203282F30E092
:101CD00089816A81A90123E030E00E9445090F90C3
:101CE0000F900F90CF91DF910895DF93CF930F92D4
:101CF0000F92CDB7DEB789836A83E8E2F1E089818C
:101D00008083EAE2F1E08A8180830F900F90CF9187
:101D1000DF910895DF93CF930F920F92CDB7DEB787
:101D20008A8319828A818F708A83E2E2F0E080815F
:101D300089838981807F898399818A81892B89839D
:101D4000E2E2F0E0898180830F900F90CF91DF91E4
:101D50000895DF93CF93CDB7DEB7ADE2B0E0EDE20B
:101D6000F0E080818F7E8C93AEE2B0E0EEE2F0E0B6
:101D7000808180618C93CF91DF910895DF93CF9321
:101D8000CDB7DEB7ADE2B0E0EDE2F0E080818F7D6F
:101D90008C93AEE2B0E0EEE2F0E0808180628C9362
:101DA000CF91DF910895DF93CF93CDB7DEB7F8944D
:101DB000AAE6B0E0EAE6F0E0808182608C93ADE3D1
:101DC000B0E0EDE3F0E0808180618C937894CF9176
:101DD000DF910895DF93CF93CDB7DEB7F894AAE6ED
:101DE000B0E0EAE6F0E0808188608C93ADE3B0E09B
:101DF000EDE3F0E0808180628C937894CF91DF9165
:101E000008951F920F920FB60F9211248F939F93F4
:101E1000AF93BF93DF93CF93CDB7DEB780914003ED
:101E200090914103A0914203B09143030196A11DFB
:101E3000B11D8093400390934103A0934203B0935C
:101E40004303CF91DF91BF91AF919F918F910F90FD
:101E50000FBE0F901F9018951F920F920FB60F9202
:101E600011248F939F93AF93BF93DF93CF93CDB7FD
:101E7000DEB780913C0390913D03A0913E03B09169
:101E80003F030196A11DB11D80933C0390933D0338
:101E9000A0933E03B0933F03CF91DF91BF91AF91E9
:101EA0009F918F910F900FBE0F901F901895DF9309
:101EB000CF93CDB7DEB786E00E948A0ECF91DF9137
:101EC0000895DF93CF93CDB7DEB789E00E948A0EE5
:101ED000CF91DF910895DF93CF93CDB7DEB785E043
:101EE0000E948A0ECF91DF910895DF93CF93CDB7F3
:101EF000DEB78AE00E948A0ECF91DF910895DF93CA
:101F0000CF93CDB7DEB784E00E948A0ECF91DF91E8
:101F10000895DF93CF93CDB7DEB782E00E948A0E9B
:101F2000CF91DF910895DF93CF93CDB7DEB781E0F6
:101F30000E948A0ECF91DF910895DF93CF93CDB7A2
:101F4000DEB788E00E948A0ECF91DF910895DF937B
:101F5000CF93CDB7DEB780E00E948A0ECF91DF919C
:101F60000895DF93CF93CDB7DEB72C970FB6F894D3
:101F7000DEBF0FBECDBF9A87898780E090E0A0E0EA
:101F8000B0E08D839E83AF83B88719821A821B824B
:101F90001C8289859A85CC01A0E0B0E0BC01CD010E
:101FA0000E942837DC01CB01BC01CD0128E431EED1
:101FB00042E850E40E949835DC01CB018D839E837A
:101FC000AF83B8876D817E818F8198850E94C832EA
:101FD000DC01CB01CC01A0E0B0E089839A83AB8324
:101FE000BC8310924003109241031092420310925E
:101FF000430310923C0310923D0310923E03109253
:102000003F0320914003309141034091420350919E
:1020100043031C8689819A81AB81BC8128173907CB
:102020004A075B0710F081E08C8720913C033091D8
:102030003D0340913E0350913F031B8689819A8165
:10204000AB81BC81281739074A075B0710F091E084
:102050009B878C859B85892B882399F20E94A70FEB
:102060002C960FB6F894DEBF0FBECDBFCF91DF9197
:102070000895DF93CF93CDB7DEB72A970FB6F894C4
:10208000DEBF0FBECDBF9A87898780E090E0A0E0D9
:10209000B0E08D839E83AF83B88719821A821B823A
:1020A0001C8289859A85CC01A0E0B0E0BC01CD01FD
:1020B0000E942837DC01CB01BC01CD0125EE30EDBB
:1020C0004AEA50E40E949835DC01CB018D839E835F
:1020D000AF83B8876D817E818F8198850E94C832D9
:1020E000DC01CB0189839A83AB83BC8310924003CC
:1020F0001092410310924203109243032091400337
:1021000030914103409142035091430389819A8168
:10211000AB81BC8182179307A407B50778F70E94AB
:10212000A70F2A960FB6F894DEBF0FBECDBFCF9192
:10213000DF910895DF93CF930F920F92CDB7DEB763
:102140009A8389830E94570F89819A810E9439104E
:102150000F900F90CF91DF910895DF93CF930F925F
:102160000F92CDB7DEB79A8389830E94610F898170
:102170009A810E9439100F900F90CF91DF910895AE
:10218000DF93CF930F920F92CDB7DEB79A838983F7
:102190000E946B0F89819A810E94B10F0F900F905E
:1021A000CF91DF910895DF93CF930F920F92CDB728
:1021B000DEB79A8389830E94750F89819A810E9474
:1021C000B10F0F900F90CF91DF910895DF93CF93D0
:1021D0000F920F92CDB7DEB79A8389830E947F0F4B
:1021E00089819A81880F991F9A83898389819A812D
:1021F0000E94B10F0F900F90CF91DF910895DF9360
:10220000CF930F920F92CDB7DEB79A8389830E9446
:10221000890F89819A81880F991F9A83898389817F
:102220009A810E94B10F0F900F90CF91DF91089586
:10223000DF93CF930F920F92CDB7DEB79A83898346
:102240000E94930F89819A81880F991F9A838983AD
:1022500089819A810E94B10F0F900F90CF91DF91E9
:102260000895DF93CF930F920F92CDB7DEB79A8385
:1022700089830E949D0F89819A81880F991F9A8373
:10228000898389819A810E94B10F0F900F90CF911D
:10229000DF910895DF93CF93CDB7DEB70E948A0D0B
:1022A0000E949F0D0E94B20D0E94A90E0E94BE0EB8
:1022B000CF91DF910895DF93CF93CDB7DEB7F89438
:1022C0000E944A110E94D30E0E94EA0E0E94040E40
:1022D0000E94D50D0E94290A7894CF91DF9108952C
:1022E000DF93CF93CDB7DEB72E970FB6F894DEBF4E
:1022F0000FBECDBF0E94A8317FC00E94A70F809162
:10230000300290913102CC01A0E0B0E0BC01CD01DF
:102310000E942837DC01CB018B879C87AD87BE8765
:102320006B857C858D859E8526E636E646E655E4FA
:102330000E949E34DC01CB018F839887A987BA87DE
:102340006F81788589859A8520E030E040E85FE3F9
:102350000E94A43688232CF481E090E09E838D8334
:102360003FC06F81788589859A8520E03FEF4FE7F0
:1023700057E40E94443618164CF56B857C858D8594
:102380009E8520E030E040E251E40E949E34DC0172
:10239000CB01BC01CD010E94C832DC01CB019E8380
:1023A0008D830FC080E791E09C838B838B819C8120
:1023B0000197F1F79C838B838D819E8101979E838A
:1023C0008D838D819E81009769F714C06F81788518
:1023D00089859A850E94C832DC01CB019E838D835A
:1023E0008D819E819A83898389819A810197F1F7F2
:1023F0009A8389830E94A83180915A03282F30E064
:1024000080910802909109028217930708F475CF12
:1024100080915B03282F30E08091860390918703A1
:102420002817390708F469CF80916003282F30E01E
:1024300080918603909187032817390708F45DCFB0
:1024400080916103282F30E080918603909187036B
:102450002817390708F451CF2E960FB6F894DEBF2F
:102460000FBECDBFCF91DF910895DF93CF93CDB74E
:10247000DEB72E970FB6F894DEBF0FBECDBF0E9419
:10248000A8317FC00E94A70F809132029091330241
:10249000CC01A0E0B0E0BC01CD010E942837DC01F6
:1024A000CB018B879C87AD87BE876B857C858D85AF
:1024B0009E8526E636E646E655E40E949E34DC011B
:1024C000CB018F839887A987BA876F8178858985A3
:1024D0009A8520E030E040E85FE30E94A43688233C
:1024E0002CF481E090E09E838D833FC06F817885DE
:1024F00089859A8520E03FEF4FE757E40E944436F4
:1025000018164CF56B857C858D859E8520E030E026
:1025100040E251E40E949E34DC01CB01BC01CD01BC
:102520000E94C832DC01CB019E838D830FC080E7FF
:1025300091E09C838B838B819C810197F1F79C8335
:102540008B838D819E8101979E838D838D819E815A
:10255000009769F714C06F81788589859A850E94F4
:10256000C832DC01CB019E838D838D819E819A834D
:10257000898389819A810197F1F79A8389830E94DF
:10258000A83180915A03282F30E080910802909161
:1025900009028217930708F475CF80915B03282FF7
:1025A00030E080918603909187032817390708F45B
:1025B00069CF80916003282F30E08091860390914D
:1025C00087032817390708F45DCF80916103282F0E
:1025D00030E080918603909187032817390708F42B
:1025E00051CF2E960FB6F894DEBF0FBECDBFCF9160
:1025F000DF9108950F931F93DF93CF93CDB7DEB78D
:10260000C654D0400FB6F894DEBF0FBECDBF83E0F6
:102610000E941D0E8093450382E00E941D0E809350
:10262000460381E00E941D0E809347030E94A8315B
:102630001092440310925C0380917403909175038F
:1026400090939C0380939B038091760390917703F2
:1026500090938B0380938A0381E061E043E00E94C2
:10266000570E81E065E042E00E94570E81E069E08C
:1026700041E00E94570E80917403909175039C0174
:1026800082E061E0A90122E030E00E9445098091EA
:102690007603909177039C0182E065E0A90122E036
:1026A00030E00E9445099BC081E080935C030E945A
:1026B000A70F0E94CE0A8091300290913102CC0186
:1026C000A0E0B0E0BC01CD010E942837DC01CB01C5
:1026D000FE01ED5BFF4F80839183A283B3838E0164
:1026E000015C1F4FFE01ED5BFF4F608171818281B4
:1026F000938126E636E646E655E40E949E34DC01E8
:10270000CB01F80180839183A283B383FE01FF96FE
:10271000608171818281938120E030E040E85FE355
:102720000E94A43688232CF481E090E09EAF8DAF08
:1027300046C0FE01FF96608171818281938120E015
:102740003FEF4FE757E40E944436181664F5FE0148
:10275000ED5BFF4F608171818281938120E030E0E9
:1027600040E251E40E949E34DC01CB01BC01CD016A
:102770000E94C832DC01CB019EAF8DAF0FC080E755
:1027800091E09CAF8BAF8BAD9CAD0197F1F79CAF07
:102790008BAF8DAD9EAD01979EAF8DAF8DAD9EADD4
:1027A000009769F716C0FE01FF96608171818281F2
:1027B00093810E94C832DC01CB019EAF8DAF8DADFD
:1027C0009EAD9AAF89AF89AD9AAD0197F1F79AAFF7
:1027D00089AF0E94E30A0E94A8310E947011809183
:1027E0005A03282F30E08091080290910902821745
:1027F000930708F459CF80915B03282F30E0809134
:102800008603909187032817390708F44DCF8091EC
:102810006003282F30E0809186039091870328176A
:10282000390708F441CF80916103282F30E080916F
:102830008603909187032817390708F435CF8091D4
:102840005A03282F30E080910802909109028217E4
:10285000930708F180915B03282F30E08091860375
:102860009091870328173907B0F080916003282FD3
:1028700030E080918603909187032817390758F03C
:1028800080916103282F30E0809186039091870327
:102890002817390720F481E080935C0325C010924B
:1028A0005C0322C00E94701181E08093440381E0A8
:1028B00090E0909357038093560385E090E00E9448
:1028C0009A10109279031092780383E00E941D0EF3
:1028D0008093450382E00E941D0E8093460381E0B1
:1028E0000E941D0E8093470380914603803480F13F
:1028F00080914503803460F580914703803440F532
:1029000080915C03882371F223C00E94701182E0E1
:1029100090E0909357038093560382E090E00E94EA
:10292000C01085E090E00E949A10109279031092F6
:10293000780383E00E941D0E8093450382E00E948D
:102940001D0E8093460381E00E941D0E8093470375
:1029500080914603803480F180914503803460F19A
:1029600080914703803440F580915C03882369F2AD
:1029700023C00E94701183E090E0909357038093EE
:10298000560382E090E00E94D31085E090E00E9420
:102990009A10109279031092780383E00E941D0E22
:1029A0008093450382E00E941D0E8093460381E0E0
:1029B0000E941D0E8093470380914603803480F16E
:1029C00080914503803460F580914703803440F165
:1029D00080915C03882369F223C00E94701184E017
:1029E00090E0909357038093560385E090E00E9417
:1029F000D310109279031092780382E090E00E9445
:102A00009A1083E00E941D0E8093450382E00E948D
:102A10001D0E8093460381E00E941D0E80934703A4
:102A200080914603803480F580914503803460F5C1
:102A300080914703803440F180915C03882369F2E0
:102A400023C00E94701185E090E09093570380931B
:102A5000560385E090E00E94C01010927903109216
:102A6000780382E090E00E949A1083E00E941D0E9D
:102A70008093450382E00E941D0E8093460381E00F
:102A80000E941D0E8093470380914603803460F4BA
:102A900080914503803440F080914703813420F4D5
:102AA00080915C03882369F280914603803408F4A6
:102AB0001FC280914503803408F41AC280914703F5
:102AC000803408F415C280914403882309F010C2B1
:102AD00080915603909157038630910509F408C2FE
:102AE00080915603909157038930910509F400C2F3
:102AF00080915C03882309F0FBC186E090E090930D
:102B000057038093560381E0809344031092790326
:102B1000109278030E94A70F809180039091810307
:102B2000009749F4809174039091750301969093F6
:102B300075038093740380918003909181038130A9
:102B40009105D1F480915D0390915E0381309105F0
:102B500051F48091760390917703019690937703D7
:102B60008093760309C08091760390917703019753
:102B7000909377038093760385E090E00E949A100B
:102B800020917403309175038091040290910502A5
:102B90002817390709F0A4C080917A0390917B032C
:102BA000009709F09DC080915C03882309F098C0CC
:102BB00081E090E0909381038093800386E490E02D
:102BC0000E949A1080915D0390915E03813091057F
:102BD00029F48AE590E00E94C01004C08AE590E0E4
:102BE0000E94D31080E090E0AAEFB3E48DAB9EABDF
:102BF000AFABB8AF6DA97EA98FA998AD26E636E632
:102C000046E655E40E949E34DC01CB0189AB9AABC9
:102C1000ABABBCAB69A97AA98BA99CA920E030E039
:102C200040E85FE30E94A43688232CF481E090E022
:102C300098AB8FA73FC069A97AA98BA99CA920E06E
:102C40003FEF4FE757E40E94443618164CF56DA944
:102C50007EA98FA998AD20E030E040E251E40E94C7
:102C60009E34DC01CB01BC01CD010E94C832DC01E5
:102C7000CB0198AB8FA70FC080E791E09EA78DA7EF
:102C80008DA59EA50197F1F79EA78DA78FA598A961
:102C9000019798AB8FA78FA598A9009769F714C0E3
:102CA00069A97AA98BA99CA90E94C832DC01CB0131
:102CB00098AB8FA78FA598A99CA78BA78BA59CA540
:102CC0000197F1F79CA78BA70E94570F81E090E036
:102CD00090937B0380937A0389E190E00E949A109D
:102CE00080915D0390915E038130910509F07FC072
:102CF000209176033091770380910602909107022C
:102D00002817390709F0F4C080E090E0AAEFB3E497
:102D10008FA398A7A9A7BAA76FA178A589A59AA5F7
:102D200026E636E646E655E40E949E34DC01CB01F9
:102D30008BA39CA3ADA3BEA36BA17CA18DA19EA1DF
:102D400020E030E040E85FE30E94A43688232CF4C2
:102D500081E090E09AA389A33FC06BA17CA18DA1E3
:102D60009EA120E03FEF4FE757E40E94443618163B
:102D70004CF56FA178A589A59AA520E030E040E246
:102D800051E40E949E34DC01CB01BC01CD010E94C4
:102D9000C832DC01CB019AA389A30FC080E791E080
:102DA00098A38F8F8F8D98A10197F1F798A38F8F9C
:102DB00089A19AA101979AA389A389A19AA10097B1
:102DC00069F796C06BA17CA18DA19EA10E94C8321B
:102DD000DC01CB019AA389A389A19AA19E8F8D8F33
:102DE0008D8D9E8D0197F1F79E8F8D8F81C0809183
:102DF0000602909107029C012F5F3F4F809176035E
:102E0000909177032817390709F072C080E090E0AD
:102E1000AAEFB3E4898F9A8FAB8FBC8F698D7A8DBF
:102E20008B8D9C8D26E636E646E655E40E949E3460
:102E3000DC01CB018D8B9E8BAF8BB88F6D897E892A
:102E40008F89988D20E030E040E85FE30E94A4364F
:102E500088232CF481E090E09C8B8B8B3FC06D89A4
:102E60007E898F89988D20E03FEF4FE757E40E94DD
:102E7000443618164CF5698D7A8D8B8D9C8D20E02B
:102E800030E040E251E40E949E34DC01CB01BC0101
:102E9000CD010E94C832DC01CB019C8B8B8B0FC013
:102EA00080E791E09A8B898B89899A890197F1F75C
:102EB0009A8B898B8B899C8901979C8B8B8B8B89B7
:102EC0009C89009769F714C06D897E898F89988DD8
:102ED0000E94C832DC01CB019C8B8B8B8B899C8937
:102EE000988B8F878F8598890197F1F7988B8F87BB
:102EF0002091740330917503809104029091050232
:102F000028173907B1F42091760330917703809127
:102F10000602909107022817390759F480915D0342
:102F200090915E038130910521F480915C038823A8
:102F300039F12091740330917503809104029091CE
:102F400005022817390709F0E0C080910602909128
:102F500007029C012F5F3F4F80917603909177038A
:102F60002817390709F0D1C080915D0390915E0365
:102F7000009709F0CAC080915C03882309F0C5C09E
:102F800087E090E0909357038093560380915D0310
:102F900090915E038130910529F48EE091E00E94CA
:102FA000C33104C088EC90E00E94C33180915D037E
:102FB00090915E038130910529F48AE590E00E94AA
:102FC000C01080C08AE590E00E94D3107BC080E0F2
:102FD00090E0A0E7B2E48B879C87AD87BE876B85C6
:102FE0007C858D859E8526E636E646E655E40E947C
:102FF0009E34DC01CB018F839887A987BA876F81C4
:10300000788589859A8520E030E040E85FE30E947A
:10301000A43688232CF481E090E09E838D833FC00A
:103020006F81788589859A8520E03FEF4FE757E4E7
:103030000E94443618164CF56B857C858D859E85DF
:1030400020E030E040E251E40E949E34DC01CB01FC
:10305000BC01CD010E94C832DC01CB019E838D836F
:103060000FC080E791E09C838B838B819C810197CB
:10307000F1F79C838B838D819E8101979E838D8345
:103080008D819E81009769F714C06F81788589854D
:103090009A850E94C832DC01CB019E838D838D818D
:1030A0009E819A83898389819A810197F1F79A8316
:1030B0008983809102029091030201979093030209
:1030C000809302028091020290910302009709F01E
:1030D0007ECF109255031092540381E090E09093BC
:1030E0006903809368031092810310928003109209
:1030F0007B0310927A03109279031092780384E68E
:1031000090E0909303028093020280914603803402
:1031100050F580914503803430F580914703803429
:1031200010F580915C038823F1F40E94DC301BC011
:1031300089E090E090935703809356030E947011AA
:1031400082E090E00E949A1083E00E941D0E80931E
:10315000450382E00E941D0E8093460381E00E9499
:103160001D0E80934703809146038034D0F08091F8
:1031700045038034B0F080914703803490F0809113
:103180005603909157038630910539F0809156038C
:10319000909157038930910521F480915C03882335
:1031A00039F281E090E0CA5BDF4F0FB6F894DEBFE2
:1031B0000FBECDBFCF91DF911F910F9108950F9357
:1031C0001F93DF93CF93CDB7DEB7CC58D0400FB667
:1031D000F894DEBF0FBECDBF83E00E941D0E80932A
:1031E000450382E00E941D0E8093460381E00E9409
:1031F0001D0E809347030E94A83110924403109241
:103200005C03809174039091750390939C03809369
:103210009B03809176039091770390938B03809327
:103220008A0381E061E043E00E94570E81E065E09F
:1032300042E00E94570E81E069E041E00E94570E93
:1032400080917403909175039C0182E061E0A90173
:1032500022E030E00E944509809176039091770347
:103260009C0182E065E0A90122E030E00E9445096E
:10327000C9C081E080935C030E94A70F0E94CE0A20
:103280008091320290913302CC01A0E0B0E0BC0109
:10329000CD010E942837DC01CB01FE01E757FF4F2B
:1032A00080839183A283B3838E010B571F4FFE014E
:1032B000E757FF4F608171818281938126E636E670
:1032C00046E655E40E949E34DC01CB01F801808380
:1032D0009183A283B383FE01EB57FF4F608171811D
:1032E0008281938120E030E040E85FE30E94A436D1
:1032F000882344F4FE01ED57FF4F81E090E0918375
:10330000808364C0FE01EB57FF4F60817181828131
:10331000938120E03FEF4FE757E40E9444361816B0
:103320000CF043C0FE01E757FF4F6081718182813D
:10333000938120E030E040E251E40E949E34DC01C1
:10334000CB018E010D571F4FBC01CD010E94C83229
:10335000DC01CB01F801918380831FC0FE01EF5790
:10336000FF4F80E791E091838083FE01EF57FF4F8D
:10337000808191810197F1F7FE01EF57FF4F918313
:103380008083DE01AD57BF4FFE01ED57FF4F8081B7
:103390009181019711969C938E93FE01ED57FF4FFB
:1033A000808191810097D1F627C08E010D571F4F64
:1033B000FE01EB57FF4F60817181828193810E94F2
:1033C000C832DC01CB01F80191838083DE01A15872
:1033D000BF4FFE01ED57FF4F808191818D939C93EC
:1033E000FE01E158FF4F808191810197F1F7FE01C5
:1033F000E158FF4F918380830E94E30A0E94A83125
:103400000E94FF2880915A03282F30E08091080203
:10341000909109028217930708F42BCF80915B03E8
:10342000282F30E080918603909187032817390771
:1034300008F41FCF80916003282F30E0809186032D
:10344000909187032817390708F413CF80916103FF
:10345000282F30E080918603909187032817390741
:1034600008F407CF18C10E94A831C5C081E080933D
:103470005C030E94A70F8091320290913302CC012D
:10348000A0E0B0E0BC01CD010E942837DC01CB01F7
:10349000FE01E558FF4F80839183A283B3838E01A1
:1034A00009581F4FFE01E558FF4F608171818281ED
:1034B000938126E636E646E655E40E949E34DC011A
:1034C000CB01F80180839183A283B383FE01E95885
:1034D000FF4F608171818281938120E030E040E87C
:1034E0005FE30E94A436882344F4FE01EB58FF4FAB
:1034F00081E090E09183808364C0FE01E958FF4F32
:10350000608171818281938120E03FEF4FE757E432
:103510000E94443618160CF043C0FE01E558FF4FD8
:10352000608171818281938120E030E040E251E44A
:103530000E949E34DC01CB018E010B581F4FBC0151
:10354000CD010E94C832DC01CB01F8019183808358
:103550001FC0FE01ED58FF4F80E791E0918380830B
:10356000FE01ED58FF4F808191810197F1F7FE0137
:10357000ED58FF4F91838083DE01AB58BF4FFE01B2
:10358000EB58FF4F80819181019711969C938E9308
:10359000FE01EB58FF4F808191810097D1F627C043
:1035A0008E010B581F4FFE01E958FF4F608171815A
:1035B000828193810E94C832DC01CB01F8019183A2
:1035C0008083DE01AF58BF4FFE01EB58FF4F808173
:1035D00091818D939C93FE01EF58FF4F80819181E3
:1035E0000197F1F7FE01EF58FF4F918380830E940E
:1035F000A8310E94FF2880915A03282F30E0809143
:103600000802909109028217930708F42FCF809146
:103610005B03282F30E08091860390918703281761
:10362000390708F423CF80916003282F30E0809180
:103630008603909187032817390708F417CF8091E4
:103640006103282F30E0809186039091870328172B
:10365000390708F40BCF81E08093440381E090E0C8
:10366000909357038093560385E090E00E949A1050
:10367000109279031092780383E00E941D0E8093CC
:10368000450382E00E941D0E8093460381E00E9464
:103690001D0E8093470380914603803408F429C1AE
:1036A00080914503803408F024C180914703803421
:1036B00008F01FC180915C03882309F4D4CE19C19E
:1036C0000E94A831C5C081E080935C030E94A70FCF
:1036D0008091320290913302CC01A0E0B0E0BC01B5
:1036E000CD010E942837DC01CB01FE01E359FF4FD9
:1036F00080839183A283B3838E0107591F4FFE01FC
:10370000E359FF4F608171818281938126E636E61D
:1037100046E655E40E949E34DC01CB01F80180832B
:103720009183A283B383FE01E759FF4F60817181CA
:103730008281938120E030E040E85FE30E94A4367C
:10374000882344F4FE01E959FF4F81E090E0918322
:10375000808364C0FE01E759FF4F608171818281DF
:10376000938120E03FEF4FE757E40E94443618165C
:103770000CF043C0FE01E359FF4F608171818281EB
:10378000938120E030E040E251E40E949E34DC016D
:10379000CB018E0109591F4FBC01CD010E94C832D7
:1037A000DC01CB01F801918380831FC0FE01EB593E
:1037B000FF4F80E791E091838083FE01EB59FF4F3B
:1037C000808191810197F1F7FE01EB59FF4F9183C1
:1037D0008083DE01A959BF4FFE01E959FF4F808167
:1037E0009181019711969C938E93FE01E959FF4FA9
:1037F000808191810097D1F627C08E0109591F4F12
:10380000FE01E759FF4F60817181828193810E949F
:10381000C832DC01CB01F80191838083DE01AD5910
:10382000BF4FFE01E959FF4F808191818D939C9399
:10383000FE01ED59FF4F808191810197F1F7FE0163
:10384000ED59FF4F918380830E94A8310E94FF2889
:1038500080915A03282F30E080910802909109024C
:103860008217930708F42FCF80915B03282F30E055
:1038700080918603909187032817390708F423CF96
:1038800080916003282F30E0809186039091870318
:103890002817390708F417CF80916103282F30E0EB
:1038A00080918603909187032817390708F40BCF7E
:1038B00082E090E0909357038093560382E090E07B
:1038C0000E94C01085E090E00E949A101092790347
:1038D0001092780383E00E941D0E8093450382E0DE
:1038E0000E941D0E8093460381E00E941D0E80936E
:1038F000470380914603803408F429C18091450331
:10390000803408F424C180914703803408F01FC13B
:1039100080915C03882309F4D3CE19C10E94A83199
:10392000C5C081E080935C030E94A70F80913202A2
:1039300090913302CC01A0E0B0E0BC01CD010E9427
:103940002837DC01CB01FE01E15AFF4F80839183D0
:10395000A283B3838E01055A1F4FFE01E15AFF4F28
:10396000608171818281938126E636E646E655E4E0
:103970000E949E34DC01CB01F80180839183A283F5
:10398000B383FE01E55AFF4F60817181828193818B
:1039900020E030E040E85FE30E94A436882344F44E
:1039A000FE01E75AFF4F81E090E09183808364C07D
:1039B000FE01E55AFF4F608171818281938120E091
:1039C0003FEF4FE757E40E94443618160CF043C00F
:1039D000FE01E15AFF4F608171818281938120E075
:1039E00030E040E251E40E949E34DC01CB018E01C4
:1039F000075A1F4FBC01CD010E94C832DC01CB0128
:103A0000F801918380831FC0FE01E95AFF4F80E7D0
:103A100091E091838083FE01E95AFF4F808191817B
:103A20000197F1F7FE01E95AFF4F91838083DE0190
:103A3000A75ABF4FFE01E75AFF4F8081918101973E
:103A400011969C938E93FE01E75AFF4F80819181DE
:103A50000097D1F627C08E01075A1F4FFE01E55A85
:103A6000FF4F60817181828193810E94C832DC01A5
:103A7000CB01F80191838083DE01AB5ABF4FFE0179
:103A8000E75AFF4F808191818D939C93FE01EB5A01
:103A9000FF4F808191810197F1F7FE01EB5AFF4FB3
:103AA000918380830E94A8310E94FF2880915A034D
:103AB000282F30E080910802909109028217930725
:103AC00008F42FCF80915B03282F30E0809186038C
:103AD000909187032817390708F423CF809160035A
:103AE000282F30E0809186039091870328173907AB
:103AF00008F417CF80916103282F30E0809186036E
:103B0000909187032817390708F40BCF83E090E0E2
:103B1000909357038093560382E090E00E94D31065
:103B200085E090E00E949A10109279031092780339
:103B300083E00E941D0E8093450382E00E941D0ECB
:103B40008093460381E00E941D0E8093470380917D
:103B50004603803408F429C180914503803408F07D
:103B600024C180914703803408F41FC180915C0315
:103B7000882309F4D3CE19C10E94A831C5C081E0C1
:103B800080935C030E94A70F8091320290913302D0
:103B9000CC01A0E0B0E0BC01CD010E942837DC01DF
:103BA000CB01FE01EF5AFF4F80839183A283B38341
:103BB0008E01035B1F4FFE01EF5AFF4F6081718141
:103BC0008281938126E636E646E655E40E949E34DD
:103BD000DC01CB01F80180839183A283B383FE01D2
:103BE000E35BFF4F608171818281938120E030E04F
:103BF00040E85FE30E94A436882344F4FE01E55BBD
:103C0000FF4F81E090E09183808364C0FE01E35B1D
:103C1000FF4F608171818281938120E03FEF4FE708
:103C200057E40E94443618160CF043C0FE01EF5AC8
:103C3000FF4F608171818281938120E030E040E21A
:103C400051E40E949E34DC01CB018E01055B1F4FC5
:103C5000BC01CD010E94C832DC01CB01F801918387
:103C600080831FC0FE01E75BFF4F80E791E09183F7
:103C70008083FE01E75BFF4F808191810197F1F71F
:103C8000FE01E75BFF4F91838083DE01A55BBF4FA1
:103C9000FE01E55BFF4F80819181019711969C9316
:103CA0008E93FE01E55BFF4F808191810097D1F6F5
:103CB00027C08E01055B1F4FFE01E35BFF4F608154
:103CC0007181828193810E94C832DC01CB01F801AD
:103CD00091838083DE01A95BBF4FFE01E55BFF4F4F
:103CE000808191818D939C93FE01E95BFF4F8081E0
:103CF00091810197F1F7FE01E95BFF4F918380838A
:103D00000E94A8310E94FF2880915A03282F30E09A
:103D100080910802909109028217930708F42FCF2F
:103D200080915B03282F30E0809186039091870378
:103D30002817390708F423CF80916003282F30E03B
:103D400080918603909187032817390708F417CFCD
:103D500080916103282F30E0809186039091870342
:103D60002817390708F40BCF84E090E090935703AD
:103D70008093560385E090E00E94D31082E090E0AB
:103D80000E949A10109279031092780383E00E94A7
:103D90001D0E8093450382E00E941D0E8093460312
:103DA00081E00E941D0E809347038091460380347A
:103DB00008F0FBC080914503803408F0F6C0809184
:103DC0004703803408F4F1C080915C03882309F430
:103DD000D3CEEBC00E94A83197C081E080935C03F2
:103DE0000E94A70F8091320290913302CC01A0E093
:103DF000B0E0BC01CD010E942837DC01CB01FE01FF
:103E0000ED5BFF4F80839183A283B3838E01015CBE
:103E10001F4FFE01ED5BFF4F6081718182819381B5
:103E200026E636E646E655E40E949E34DC01CB01E8
:103E3000F80180839183A283B383FE01FF966081A2
:103E400071818281938120E030E040E85FE30E944D
:103E5000A43688232CF481E090E09EAF8DAF46C05D
:103E6000FE01FF96608171818281938120E03FEFA6
:103E70004FE757E40E944436181664F5FE01ED5BE7
:103E8000FF4F608171818281938120E030E040E2C8
:103E900051E40E949E34DC01CB01BC01CD010E94A3
:103EA000C832DC01CB019EAF8DAF0FC080E791E03F
:103EB0009CAF8BAF8BAD9CAD0197F1F79CAF8BAFF7
:103EC0008DAD9EAD01979EAF8DAF8DAD9EAD009730
:103ED00069F716C0FE01FF9660817181828193812E
:103EE0000E94C832DC01CB019EAF8DAF8DAD9EAD7F
:103EF0009AAF89AF89AD9AAD0197F1F79AAF89AFC3
:103F00000E94A8310E94FF2880915A03282F30E098
:103F100080910802909109028217930708F45DCFFF
:103F200080915B03282F30E0809186039091870376
:103F30002817390708F451CF80916003282F30E00B
:103F400080918603909187032817390708F445CF9D
:103F500080916103282F30E0809186039091870340
:103F60002817390708F439CF85E090E0909357037C
:103F70008093560385E090E00E94C01082E090E0BC
:103F80000E949A10109279031092780383E00E94A5
:103F90001D0E8093450382E00E941D0E8093460310
:103FA00081E00E941D0E8093470380914603803478
:103FB00068F480914503803448F080914703813450
:103FC00028F480915C03882309F404CF8091460390
:103FD000803408F402C280914503803408F4FDC1A6
:103FE00080914703803408F4F8C18091440388230A
:103FF00009F0F3C1809156039091570386309105E3
:1040000009F4EBC1809156039091570389309105D3
:1040100009F4E3C180915C03882309F0DEC186E0E6
:1040200090E0909357038093560381E0809344037C
:1040300010927903109278030E94A70F8091820357
:10404000909183030097D1F4809158039091590384
:104050008130910551F48091760390917703019717
:10406000909377038093760309C0809176039091B3
:104070007703019690937703809376038091820370
:10408000909183038130910549F48091740390915C
:1040900075030197909375038093740385E090E016
:1040A0000E949A1020917603309177038091060246
:1040B000909107022817390709F011C180917C03FC
:1040C00090917D03009709F00AC180E090E0AAEF8B
:1040D000B3E48DAB9EABAFABB8AF6DA97EA98FA992
:1040E00098AD26E636E646E655E40E949E34DC01AD
:1040F000CB0189AB9AABABABBCAB69A97AA98BA955
:104100009CA920E030E040E85FE30E94A4368823C9
:104110002CF481E090E098AB8FA73FC069A97AA901
:104120008BA99CA920E03FEF4FE757E40E9444365B
:1041300018164CF56DA97EA98FA998AD20E030E046
:1041400040E251E40E949E34DC01CB01BC01CD0170
:104150000E94C832DC01CB0198AB8FA70FC080E76B
:1041600091E09EA78DA78DA59EA50197F1F79EA72B
:104170008DA78FA598A9019798AB8FA78FA598A910
:10418000009769F714C069A97AA98BA99CA90E9414
:10419000C832DC01CB0198AB8FA78FA598A99CA74B
:1041A0008BA78BA59CA50197F1F79CA78BA781E016
:1041B00090E0909383038093820382E390E00E94D7
:1041C0009A1080915803909159038130910529F4F8
:1041D0008AE590E00E94D31004C08AE590E00E9436
:1041E000C01080E090E0AAEFB3E48FA398A7A9A73E
:1041F000BAA76FA178A589A59AA526E636E646E670
:1042000055E40E949E34DC01CB018BA39CA3ADA39B
:10421000BEA36BA17CA18DA19EA120E030E040E86F
:104220005FE30E94A43688232CF481E090E09AA3F7
:1042300089A33FC06BA17CA18DA19EA120E03FEF8F
:104240004FE757E40E94443618164CF56FA178A545
:1042500089A59AA520E030E040E251E40E949E3416
:10426000DC01CB01BC01CD010E94C832DC01CB01D5
:104270009AA389A30FC080E791E098A38F8F8F8DB9
:1042800098A10197F1F798A38F8F89A19AA101971F
:104290009AA389A389A19AA1009769F714C06BA179
:1042A0007CA18DA19EA10E94C832DC01CB019AA302
:1042B00089A389A19AA19E8F8D8F8D8D9E8D019747
:1042C000F1F79E8F8D8F0E94570F81E090E09093C1
:1042D0007D0380937C0384E190E00E949A102091FA
:1042E00074033091750380910402909105022817A0
:1042F000390709F072C080E090E0AAEFB3E4898F3B
:104300009A8FAB8FBC8F698D7A8D8B8D9C8D26E6B5
:1043100036E646E655E40E949E34DC01CB018D8BE7
:104320009E8BAF8BB88F6D897E898F89988D20E0A9
:1043300030E040E85FE30E94A43688232CF481E05B
:1043400090E09C8B8B8B3FC06D897E898F89988D87
:1043500020E03FEF4FE757E40E94443618164CF533
:10436000698D7A8D8B8D9C8D20E030E040E251E4A8
:104370000E949E34DC01CB01BC01CD010E94C832F9
:10438000DC01CB019C8B8B8B0FC080E791E09A8B7B
:10439000898B89899A890197F1F79A8B898B8B8907
:1043A0009C8901979C8B8B8B8B899C89009769F7E3
:1043B00014C06D897E898F89988D0E94C832DC0176
:1043C000CB019C8B8B8B8B899C89988B8F878F855E
:1043D00098890197F1F7988B8F872091740330911A
:1043E0007503809104029091050228173907B9F5E9
:1043F0002091760330917703809106029091070215
:104400002817390761F5109257031092560382E37B
:1044100090E00E949A10109255031092540381E08C
:1044200090E090936B0380936A0310928103109243
:104430008003109283031092820310927D031092E6
:104440007C03109279031092780384E690E09093B5
:104450000302809302021092590310925803809134
:104460004603803408F0E8C080914503803408F0AA
:10447000E3C080914703803408F0DEC080915C0384
:10448000882309F0D9C088E090E090935703809387
:1044900056030E94DC30D0C00E94A83184C081E065
:1044A00080935C030E94A70F8091320290913302A7
:1044B000CC01A0E0B0E0BC01CD010E942837DC01B6
:1044C000CB018B879C87AD87BE876B857C858D856F
:1044D0009E8526E636E646E655E40E949E34DC01DB
:1044E000CB018F839887A987BA876F817885898563
:1044F0009A8520E030E040E85FE30E94A4368823FC
:104500002CF481E090E09E838D833FC06F8178859D
:1045100089859A8520E03FEF4FE757E40E944436B3
:1045200018164CF56B857C858D859E8520E030E0E6
:1045300040E251E40E949E34DC01CB01BC01CD017C
:104540000E94C832DC01CB019E838D830FC080E7BF
:1045500091E09C838B838B819C810197F1F79C83F5
:104560008B838D819E8101979E838D838D819E811A
:10457000009769F714C06F81788589859A850E94B4
:10458000C832DC01CB019E838D838D819E819A830D
:10459000898389819A810197F1F79A8389830E949F
:1045A000A8310E94FF2880915A03282F30E0809183
:1045B0000802909109028217930708F470CF809146
:1045C0005B03282F30E080918603909187032817A2
:1045D000390708F464CF80916003282F30E0809180
:1045E0008603909187032817390708F458CF8091E4
:1045F0006103282F30E0809186039091870328176C
:10460000390708F44CCF85E090E00E949A1089E0C9
:1046100090E0909357038093560383E00E941D0E11
:104620008093450382E00E941D0E8093460381E043
:104630000E941D0E80934703809146038034D8F07A
:10464000809145038034B8F080914703803498F01E
:1046500080915603909157038630910539F08091EF
:104660005603909157038930910529F480915C039A
:10467000882309F411CF80916A0390916B038130F4
:10468000910511F40E94522381E090E0C457DF4F5E
:104690000FB6F894DEBF0FBECDBFCF91DF911F9153
:1046A0000F910895DF93CF93CDB7DEB76C970FB618
:1046B000F894DEBF0FBECDBF8AE090E00E949A1052
:1046C0008AE590E00E94C01010925C0383E00E9493
:1046D0001D0E8093450382E00E941D0E80934603C9
:1046E00081E00E941D0E809347030E94A8310E9422
:1046F000351207C00E94A83181E080935C030E94BC
:10470000A70F80915A03282F30E0809108029091E2
:1047100009028217930770F380915B03282F30E022
:1047200080918603909187032817390718F38091A9
:104730006003282F30E0809186039091870328172B
:104740003907C0F280916103282F30E08091860301
:10475000909187032817390768F283E00E941D0EA5
:104760008093450382E00E941D0E8093460381E002
:104770000E941D0E809347030E94A83110925C0393
:1047800080915A03282F30E080910802909109020D
:104790008217930708F180915B03282F30E0809106
:1047A00086039091870328173907B0F08091600342
:1047B000282F30E0809186039091870328173907CE
:1047C00058F080916103282F30E08091860390910A
:1047D00087032817390728F40E94A70F81E08093E8
:1047E0005C0380914603813468F0809145038134F5
:1047F00048F080914703813428F080915C0388233E
:1048000009F47BC080914603803480F08091450399
:10481000803460F080914703803440F480915C03E1
:10482000882321F481E090E00E94C010809146032B
:10483000803480F080914503803460F48091470398
:10484000803440F080915C03882321F481E090E083
:104850000E94D31080914603803480F080914503FC
:10486000803460F480914703803440F480915C038D
:10487000882321F485E090E00E949A1080914603FD
:10488000803480F480914503803460F48091470344
:10489000803440F080915C03882321F482E090E032
:1048A0000E94D31080914603803480F480914503A8
:1048B000803460F080914703803440F480915C0341
:1048C000882321F482E090E00E94C010809146038A
:1048D000803408F042CF80914503803408F03DCF0A
:1048E00080914703803408F038CF80915C0388239F
:1048F00009F033CF0E94DC3030CF80E590E00E9499
:104900009A1080E090E0A8ECB2E4898F9A8FAB8F88
:10491000BC8F698D7A8D8B8D9C8D26E636E646E6BA
:1049200055E40E949E34DC01CB018D8B9E8BAF8BB6
:10493000B88F6D897E898F89988D20E030E040E8BE
:104940005FE30E94A43688232CF481E090E09C8BE6
:104950008B8B3FC06D897E898F89988D20E03FEFDA
:104960004FE757E40E94443618164CF5698D7A8D4E
:104970008B8D9C8D20E030E040E251E40E949E341B
:10498000DC01CB01BC01CD010E94C832DC01CB01AE
:104990009C8B8B8B0FC080E791E09A8B898B8989E8
:1049A0009A890197F1F79A8B898B8B899C8901975A
:1049B0009C8B8B8B8B899C89009769F714C06D89C0
:1049C0007E898F89988D0E94C832DC01CB019C8B37
:1049D0008B8B8B899C89988B8F878F859889019782
:1049E000F1F7988B8F878AE590E00E94C01080E0F5
:1049F00090E0A8ECB2E48B879C87AD87BE876B857F
:104A00007C858D859E8526E636E646E655E40E9441
:104A10009E34DC01CB018F839887A987BA876F8189
:104A2000788589859A8520E030E040E85FE30E9440
:104A3000A43688232CF481E090E09E838D833FC0D0
:104A40006F81788589859A8520E03FEF4FE757E4AD
:104A50000E94443618164CF56B857C858D859E85A5
:104A600020E030E040E251E40E949E34DC01CB01C2
:104A7000BC01CD010E94C832DC01CB019E838D8335
:104A80000FC080E791E09C838B838B819C81019791
:104A9000F1F79C838B838D819E8101979E838D830B
:104AA0008D819E81009769F714C06F817885898513
:104AB0009A850E94C832DC01CB019E838D838D8153
:104AC0009E819A83898389819A810197F1F79A83DC
:104AD00089838FE090E00E94AD100E94A70F6C9632
:104AE0000FB6F894DEBF0FBECDBFCF91DF91089512
:104AF0000F931F93DF93CF93CDB7DEB7C854D04049
:104B00000FB6F894DEBF0FBECDBF10925C030E94BB
:104B10005B110E9495000E94940510926B03109205
:104B20006A0310925E0310925D0310926703109265
:104B30006603809154039091550381309105C9F724
:104B40008091A1039091A2039093050280930402A7
:104B500080919003909191039093070280930602B5
:104B600080919B0390919C039093750380937403B1
:104B700080918A0390918B039093770380937603BF
:104B800080917603909177039C018091900390919E
:104B900091038217930728F410925E0310925D032D
:104BA00006C081E090E090935E0380935D038EE108
:104BB00092E00E949A0A81E090E090937F038093B4
:104BC0007E0381E090E090937F0380937E030E94B8
:104BD000E30A0E94FA128091680390916903813080
:104BE000910579F78091680390916903813091056F
:104BF00009F08DCFFE01E95BFF4F1182108284E046
:104C00000E941D0E80935F03A2C00E94A70F0E9406
:104C1000CE0AFE01ED5BFF4F80E090E0AAEFB3E427
:104C200080839183A283B3838E01015C1F4FFE01B9
:104C3000ED5BFF4F608171818281938126E636E6CC
:104C400046E655E40E949E34DC01CB01F8018083E6
:104C50009183A283B383FE01FF966081718182817B
:104C6000938120E030E040E85FE30E94A43688238F
:104C70002CF481E090E09EAF8DAF46C0FE01FF9620
:104C8000608171818281938120E03FEF4FE757E49B
:104C90000E944436181664F5FE01ED5BFF4F6081FB
:104CA00071818281938120E030E040E251E40E94F2
:104CB0009E34DC01CB01BC01CD010E94C832DC0175
:104CC000CB019EAF8DAF0FC080E791E09CAF8BAF63
:104CD0008BAD9CAD0197F1F79CAF8BAF8DAD9EADC9
:104CE00001979EAF8DAF8DAD9EAD009769F716C051
:104CF000FE01FF9660817181828193810E94C8329A
:104D0000DC01CB019EAF8DAF8DAD9EAD9AAF89AF6B
:104D100089AD9AAD0197F1F79AAF89AF84E00E940F
:104D20001D0E80935F03DE01A95BBF4FFE01E95BAF
:104D3000FF4F80819181019611969C938E93FE0185
:104D4000E95BFF4F808191818B30910564F4809104
:104D50005F03282F30E080910A0290910B02281700
:104D6000390708F452CF0E94E30A80E090E0AAE7F6
:104D7000B4E48DAB9EABAFABB8AF6DA97EA98FA9E4
:104D800098AD26E636E646E655E40E949E34DC0100
:104D9000CB0189AB9AABABABBCAB69A97AA98BA9A8
:104DA0009CA920E030E040E85FE30E94A43688231D
:104DB0002CF481E090E098AB8FA73FC069A97AA955
:104DC0008BA99CA920E03FEF4FE757E40E944436AF
:104DD00018164CF56DA97EA98FA998AD20E030E09A
:104DE00040E251E40E949E34DC01CB01BC01CD01C4
:104DF0000E94C832DC01CB0198AB8FA70FC080E7BF
:104E000091E09EA78DA78DA59EA50197F1F79EA77E
:104E10008DA78FA598A9019798AB8FA78FA598A963
:104E2000009769F714C069A97AA98BA99CA90E9467
:104E3000C832DC01CB0198AB8FA78FA598A99CA79E
:104E40008BA78BA59CA50197F1F79CA78BA780E06A
:104E500090E0AAE7B4E48FA398A7A9A7BAA76FA187
:104E600078A589A59AA526E636E646E655E40E9489
:104E70009E34DC01CB018BA39CA3ADA3BEA36BA18D
:104E80007CA18DA19EA120E030E040E85FE30E947C
:104E9000A43688232CF481E090E09AA389A33FC034
:104EA0006BA17CA18DA19EA120E03FEF4FE757E4CD
:104EB0000E94443618164CF56FA178A589A59AA5CD
:104EC00020E030E040E251E40E949E34DC01CB015E
:104ED000BC01CD010E94C832DC01CB019AA389A399
:104EE0000FC080E791E098A38F8F8F8D98A10197D5
:104EF000F1F798A38F8F89A19AA101979AA389A30B
:104F000089A19AA1009769F714C06BA17CA18DA11A
:104F10009EA10E94C832DC01CB019AA389A389A17A
:104F20009AA19E8F8D8F8D8D9E8D0197F1F79E8F0B
:104F30008D8F209190033091910382E068E0A90168
:104F400021E030E00E94450980917603909177033B
:104F50009C0182E06AE0A90121E030E00E9445095D
:104F600080919003909191038230910530F18AE510
:104F700090E00E94C010109205021092040282E09C
:104F800090E090930702809306028091A103909194
:104F9000A203909375038093740380919003909182
:104FA00091030196909377038093760381E090E0DC
:104FB000909359038093580398C08AE590E00E942B
:104FC000D31080E090E0A8ECB2E4898F9A8FAB8F89
:104FD000BC8F698D7A8D8B8D9C8D26E636E646E6F4
:104FE00055E40E949E34DC01CB018D8B9E8BAF8BF0
:104FF000B88F6D897E898F89988D20E030E040E8F8
:105000005FE30E94A43688232CF481E090E09C8B1F
:105010008B8B3FC06D897E898F89988D20E03FEF13
:105020004FE757E40E94443618164CF5698D7A8D87
:105030008B8D9C8D20E030E040E251E40E949E3454
:10504000DC01CB01BC01CD010E94C832DC01CB01E7
:105050009C8B8B8B0FC080E791E09A8B898B898921
:105060009A890197F1F79A8B898B8B899C89019793
:105070009C8B8B8B8B899C89009769F714C06D89F9
:105080007E898F89988D0E94C832DC01CB019C8B70
:105090008B8B8B899C89988B8F878F8598890197BB
:1050A000F1F7988B8F8782E390E00E94AD10109209
:1050B00005021092040282E090E090930702809330
:1050C00006028091A1039091A203909375038093AF
:1050D0007403809190039091910390937703809350
:1050E000760310925903109258031092690310929C
:1050F00068030E94E30A0E94DF1880916A0390917E
:105100006B0381309105A9F780E090E0AAE7B4E451
:105110008B879C87AD87BE876B857C858D859E85BB
:1051200026E636E646E655E40E949E34DC01CB01D5
:105130008F839887A987BA876F81788589859A85B3
:1051400020E030E040E85FE30E94A43688232CF49E
:1051500081E090E09E838D833FC06F817885898553
:105160009A8520E03FEF4FE757E40E944436181637
:105170004CF56B857C858D859E8520E030E040E296
:1051800051E40E949E34DC01CB01BC01CD010E94A0
:10519000C832DC01CB019E838D830FC080E791E094
:1051A0009C838B838B819C810197F1F79C838B83FC
:1051B0008D819E8101979E838D838D819E81009735
:1051C00069F714C06F81788589859A850E94C832F5
:1051D000DC01CB019E838D838D819E819A8389839F
:1051E00089819A810197F1F79A83898310924B0301
:1051F00010924A0310927F0310927E0388CC0F9383
:105200001F93DF93CF93CDB7DEB7C057D0400FB613
:10521000F894DEBF0FBECDBF80917C0390917D03DB
:10522000009709F049C1809176039091770383300C
:1052300091050CF441C182E063E049E050E021E0D7
:1052400030E00E944509FE01E359FF4F80E090E005
:10525000AAEFB4E480839183A283B3838E010759BC
:105260001F4FFE01E359FF4F60817181828193815D
:1052700026E636E646E655E40E949E34DC01CB0184
:10528000F80180839183A283B383FE01E759FF4F26
:10529000608171818281938120E030E040E85FE3AA
:1052A0000E94A436882344F4FE01E959FF4F81E0AF
:1052B00090E09183808364C0FE01E759FF4F6081D5
:1052C00071818281938120E03FEF4FE757E40E9494
:1052D000443618160CF043C0FE01E359FF4F6081BD
:1052E00071818281938120E030E040E251E40E94AC
:1052F0009E34DC01CB018E0109591F4FBC01CD0149
:105300000E94C832DC01CB01F801918380831FC069
:10531000FE01EB59FF4F80E791E091838083FE010E
:10532000EB59FF4F808191810197F1F7FE01EB5915
:10533000FF4F91838083DE01A959BF4FFE01E959D8
:10534000FF4F80819181019711969C938E93FE016E
:10535000E959FF4F808191810097D1F627C08E01D6
:1053600009591F4FFE01E759FF4F6081718182810A
:1053700093810E94C832DC01CB01F80191838083C4
:10538000DE01AD59BF4FFE01E959FF4F8081918188
:105390008D939C93FE01ED59FF4F80819181019780
:1053A000F1F7FE01ED59FF4F918380830E94A831F0
:1053B00080915A03282F30E08091080290910902D1
:1053C0008217930710F180915B03282F30E08091C2
:1053D00086039091870328173907B8F080916003FE
:1053E000282F30E080918603909187032817390792
:1053F00060F080916103282F30E0809186039091C6
:1054000087032817390708F0FEC50E94A83184EBEE
:1054100090E00E94D3108EE190E00E94AD100E94B7
:10542000A8310E940F308AE590E00E94C010809160
:105430007403909175039C0182E061E0A90122E070
:1054400030E00E94450917C00E940F30809174031C
:1054500090917503019790937503809374038091E5
:105460007403909175039C0182E061E0A90122E040
:1054700030E00E944509809174039091750381305A
:10548000910511F781E090E09093670380936603A4
:1054900080914603803468F080914503803448F061
:1054A00080914703803428F08AE590E00E94C01084
:1054B000AAC50E94CE0AA7C580917C0390917D0366
:1054C000009709F069C180917603909177031816CF
:1054D00019060CF461C182E063E049E050E021E08C
:1054E00030E00E944509FE01E15AFF4F80E090E064
:1054F000AAEFB4E480839183A283B3838E01055A1B
:105500001F4FFE01E15AFF4F6081718182819381BB
:1055100026E636E646E655E40E949E34DC01CB01E1
:10552000F80180839183A283B383FE01E55AFF4F84
:10553000608171818281938120E030E040E85FE307
:105540000E94A436882344F4FE01E75AFF4F81E00D
:1055500090E09183808364C0FE01E55AFF4F608133
:1055600071818281938120E03FEF4FE757E40E94F1
:10557000443618160CF043C0FE01E15AFF4F60811B
:1055800071818281938120E030E040E251E40E9409
:105590009E34DC01CB018E01075A1F4FBC01CD01A7
:1055A0000E94C832DC01CB01F801918380831FC0C7
:1055B000FE01E95AFF4F80E791E091838083FE016D
:1055C000E95AFF4F808191810197F1F7FE01E95A75
:1055D000FF4F91838083DE01A75ABF4FFE01E75A38
:1055E000FF4F80819181019711969C938E93FE01CC
:1055F000E75AFF4F808191810097D1F627C08E0135
:10560000075A1F4FFE01E55AFF4F60817181828169
:1056100093810E94C832DC01CB01F8019183808321
:10562000DE01AB5ABF4FFE01E75AFF4F80819181E7
:105630008D939C93FE01EB5AFF4F808191810197DE
:10564000F1F7FE01EB5AFF4F918380830E94A8314E
:1056500080915A03282F30E080910802909109022E
:105660008217930710F180915B03282F30E080911F
:1056700086039091870328173907B8F0809160035B
:10568000282F30E0809186039091870328173907EF
:1056900060F080916103282F30E080918603909123
:1056A00087032817390708F0AEC40E94A83184EB9D
:1056B00090E00E94D3108EE190E00E94AD100E9415
:1056C000A8310E940F308AE590E00E94D3108091AB
:1056D0007403909175039C0182E061E0A90122E0CE
:1056E00030E00E94450937C00E940F3083E00E94DD
:1056F0001D0E8093450382E00E941D0E8093460399
:1057000081E00E941D0E8093470304C085E090E075
:105710000E949A1080914603803440F080914503A6
:10572000803420F080914703803480F780917403A7
:105730009091750301979093750380937403809102
:105740007403909175039C0182E061E0A90122E05D
:1057500030E00E9445098091740390917503813077
:10576000910511F681E090E09093670380936603C2
:1057700080914603803468F080914503803448F07E
:1057800080914703803428F08AE590E00E94D3108E
:105790003AC40E94CE0A37C480917C0390917D0365
:1057A000009709F049C28091760390917703823087
:1057B00091050CF041C2809176039091770381307E
:1057C000910509F039C28091660390916703813099
:1057D000910509F031C282E063E049E050E021E048
:1057E00030E00E944509FE01EF5AFF4F80E090E053
:1057F000AAEFB4E480839183A283B3838E01035B19
:105800001F4FFE01EF5AFF4F6081718182819381AA
:1058100026E636E646E655E40E949E34DC01CB01DE
:10582000F80180839183A283B383FE01E35BFF4F82
:10583000608171818281938120E030E040E85FE304
:105840000E94A436882344F4FE01E55BFF4F81E00B
:1058500090E09183808364C0FE01E35BFF4F608131
:1058600071818281938120E03FEF4FE757E40E94EE
:10587000443618160CF043C0FE01EF5AFF4F60810A
:1058800071818281938120E030E040E251E40E9406
:105890009E34DC01CB018E01055B1F4FBC01CD01A5
:1058A0000E94C832DC01CB01F801918380831FC0C4
:1058B000FE01E75BFF4F80E791E091838083FE016B
:1058C000E75BFF4F808191810197F1F7FE01E75B74
:1058D000FF4F91838083DE01A55BBF4FFE01E55B37
:1058E000FF4F80819181019711969C938E93FE01C9
:1058F000E55BFF4F808191810097D1F627C08E0133
:10590000055B1F4FFE01E35BFF4F60817181828168
:1059100093810E94C832DC01CB01F801918380831E
:10592000DE01A95BBF4FFE01E55BFF4F80819181E6
:105930008D939C93FE01E95BFF4F808191810197DC
:10594000F1F7FE01E95BFF4F918380830E94A8314C
:1059500080915A03282F30E080910802909109022B
:105960008217930710F180915B03282F30E080911C
:1059700086039091870328173907B8F08091600358
:10598000282F30E0809186039091870328173907EC
:1059900060F080916103282F30E080918603909120
:1059A00087032817390708F02EC38CE390E00E9484
:1059B000AD100E94A70F8091320290913302CC016A
:1059C000A0E0B0E0BC01CD010E942837DC01CB0192
:1059D000FE01ED5BFF4F80839183A283B3838E0131
:1059E000015C1F4FFE01ED5BFF4F60817181828181
:1059F000938126E636E646E655E40E949E34DC01B5
:105A0000CB01F80180839183A283B383FE01FF96CB
:105A1000608171818281938120E030E040E85FE322
:105A20000E94A43688232CF481E090E09EAF8DAFD5
:105A300046C0FE01FF96608171818281938120E0E2
:105A40003FEF4FE757E40E944436181664F5FE0115
:105A5000ED5BFF4F608171818281938120E030E0B6
:105A600040E251E40E949E34DC01CB01BC01CD0137
:105A70000E94C832DC01CB019EAF8DAF0FC080E722
:105A800091E09CAF8BAF8BAD9CAD0197F1F79CAFD4
:105A90008BAF8DAD9EAD01979EAF8DAF8DAD9EADA1
:105AA000009769F716C0FE01FF96608171818281BF
:105AB00093810E94C832DC01CB019EAF8DAF8DADCA
:105AC0009EAD9AAF89AF89AD9AAD0197F1F79AAFC4
:105AD00089AF0E94A8317FC00E94A70F8091320237
